:100000000C947A160C94B3160C94B3160C94B31685
:100010000C94B3160C94B3160C94B3160C94B3163C
:100020000C94B3160C9490D40C94B3160C94B31691
:100030000C94B3160C9459840C94B3160C94B31608
:100040000C94427F0C94B3160C9446D40C94B316C3
:100050000C94A7450C949D450C94B3160C94B316C0
:100060000C94B3160C94B3160C94B3160C94B316EC
:100070000C94B3160C94B3160C94B3160C94B316DC
:100080000C94B3160C94B3160C94B316084AD73BD1
:100090003BCE016E84BCBFFDC12F3D6C74319ABD57
:1000A00056833DDA3D00C77F11BED9E4BB4C3E917B
:1000B0006BAAAABE000000803F05A84CCDB2D44E6A
:1000C000B93836A9020C50B9918688083CA6AAAA6C
:1000D0002ABE000000803F07634236B79BD8A71AAC
:1000E00039685618AEBAAB558C1D3CB7CC5763BDBA
:1000F0006DEDFD753EF6177231BF000000803F08C0
:10010000000000BE922449123EABAAAA2ABECDCC62
:10011000CC4C3E00000080BEABAAAAAA3E00000064
:1001200000BF000000803F0000000000084178D3BD
:10013000BB4387D1133D190E3CC3BD4282AD2B3E5C
:1001400068EC8276BED98FE1A93E4C80EFFFBE01FC
:10015000C4FF7F3F0000000000004E414E494E4961
:100160005459494E46CDCCCC3D0AD7233C17B7D184
:100170003877CC2B329595E6241FB14F0A0000202A
:10018000410000C84200401C4620BCBE4CCA1B0EA9
:100190005AAEC59D74434F4D4D554E494341544948
:1001A0004F4E0044525952554E004552524F5253F1
:1001B00000494E464F004543484F0053544F50505E
:1001C00045442E20005072696E7465722073746FFE
:1001D000707065642064756520746F206572726F3D
:1001E00072732E2046697820746865206572726F7C
:1001F0007220616E6420757365204D393939207421
:100200006F20726573746172742E202854656D704E
:1002100065726174757265206973207265736574A7
:100220002E20536574206974206166746572207293
:10023000657374617274696E67290A004E6F20439A
:100240006865636B73756D2077697468206C696E7F
:1002500065206E756D6265722C204C617374204C44
:10026000696E653A20004E6F20436865636B737555
:100270006D2077697468206C696E65206E756D629B
:1002800065722C204C617374204C696E653A2000B5
:10029000636865636B73756D206D69736D617463FD
:1002A000682C204C617374204C696E653A20004CB8
:1002B000696E65204E756D626572206973206E6F80
:1002C00074204C617374204C696E65204E756D62AC
:1002D00065722B312C204C617374204C696E653A29
:1002E00020004D3131300053657269616C207374A8
:1002F00061747573206D69736D617463680A00536E
:10030000442072656164206572726F720A00746FB6
:100310006F206D75636820696E616374697665200E
:1003200074696D65202D2063757272656E7420632B
:100330006F6D6D616E643A20002121204B494C4C59
:10034000206361757365642062792000627573793A
:100350003A2070617573656420666F7220696E70F3
:1003600075740A00627573793A20706175736564FB
:1003700020666F7220757365720A00627573793A30
:100380002070726F63657373696E670A004D6564F0
:10039000696120496E73657274656400506C6561B3
:1003A0007365205265736574005052494E5445522E
:1003B0002048414C5445440025533A202553004BD6
:1003C000494C4C45442E20005072696E7465722071
:1003D00068616C7465642E206B696C6C28292063DD
:1003E000616C6C6564210A00006563686F3A0045C2
:1003F00072726F723A004F4646004F4E0042696C6F
:10040000696E656172204C6576656C696E67204720
:100410007269643A0A004F46460A004661646520E4
:100420004865696768742000426564204C6576659C
:100430006C696E6720004661696C656420746F208A
:10044000656E61626C6520426564204C6576656C02
:10045000696E670A00496E76616C6964206D657328
:10046000682E0A0050726F62696E6720506F696E65
:10047000740025532025692F2569002E0A002F00BE
:1004800050726F62696E67206D65736820706F6966
:100490006E742000202844525952554E290047328C
:1004A00039204175746F20426564204C6576656C17
:1004B000696E67003F20284C2C522C462C42292084
:1004C0006F7574206F6620626F756E64732E0A00FC
:1004D0003F2856296572626F7365206C6576656C7E
:1004E00020696D706C61757369626C652028302DB0
:1004F00034292E0A00426164205A2076616C7565A9
:100500000A004E6F2062696C696E656172206772C5
:1005100069640A0020440020204D3230302053000E
:10052000202844697361626C6564293A0046696CED
:10053000616D656E742073657474696E67730020F5
:10054000204D3230312058004D6178204163636581
:100550006C65726174696F6E2028756E6974732F93
:100560007332290020204D3230332058004D6178FD
:10057000206665656472617465732028756E6974A0
:10058000732F73290020520020204D323034205028
:1005900000416363656C65726174696F6E202875D4
:1005A0006E6974732F7332292028503C7072696E03
:1005B000742D616363656C3E20523C726574726198
:1005C00063742D616363656C3E20543C7472617684
:1005D000656C2D616363656C3E2900204A002054E0
:1005E0000020530020204D323035204200416476F7
:1005F000616E6365642028423C6D696E5F73656758
:100600006D656E745F74696D655F75733E20533CF4
:100610006D696E5F66656564726174653E20543C09
:100620006D696E5F74726176656C5F666565647234
:100630006174653E204A3C6A756E635F6465763E10
:10064000290020440020490020204D333031205023
:1006500000486F74656E6420504944002E0A001BE8
:1006600009672B642B612B206E6F742064697361A2
:10067000626C65642E2053686172656420776974CA
:10068000680020496E76616C6964206578747275C3
:100690006465722000536C6565702E2E2E005A2002
:1006A00050726F62652050617374204265640A0065
:1006B0005A2050726F6265205061737420426564E5
:1006C000004732384C30005A2050726F626520501B
:1006D0006173742042656400205A3A200020593A20
:1006E000200042656420583A2000206D696E7574C0
:1006F00065730020616E642000207475726E730053
:10070000206279200020005475726E200047333536
:100710002061626F727465642E0A002028004733DE
:1007200035206661696C656420617420706F696E44
:100730007420004732385A003F2853296372657786
:1007400020746872656164206D7573742062652021
:1007500033302C2033312C2034302C2034312C20D9
:1007600035302C206F722035312E0A004D657368AC
:1007700020706F696E74206F7574206F66207261CF
:100780006E67650A00436C69636B20746F20526565
:1007900073756D652E2E2E00616C736F20656E6112
:1007A000626C6564290A004E6F204D6F76652E00DD
:1007B000456E642066696C65206C6973740A00423A
:1007C0006567696E2066696C65206C6973740A00E0
:1007D0004E6F206D656469610A0053442063617245
:1007E000642072656C65617365640A00286E6F2011
:1007F00066696C65290043757272656E742066695E
:100800006C653A20004E6F74205344207072696EFC
:1008100074696E670A005344207072696E74696E61
:1008200067206279746520002E0A0044656C657447
:10083000696F6E206661696C65642C2046696C6521
:100840003A200046696C652064656C657465643A9D
:10085000002569730025696D202569730025696885
:100860002025696D20256973002569642025696844
:100870002025696D20256973002569792025696423
:10088000202569682025696D2025697300507269EB
:100890006E742074696D653A20006F6B006F666638
:1008A00000B601B101AA01A3019501444542554793
:1008B0003A004D3131322053687574646F776E00A1
:1008C0004D3131332053003344205072696E7465CA
:1008D00072204F46462E002F2F004D3134352053C5
:1008E0003C696E6465783E206F7574206F66207277
:1008F000616E67652028302D31290A003F4A206F3C
:100900007574206F662072616E67652028302E3006
:100910003120746F20302E33290A002058003B20EC
:100920000020204D61783A2000200020204D696E83
:100930003A2000203B200020204D3231312053004E
:10094000250A0046523A0020466C6F773A20006430
:10095000697300656E0043290A0061626C6564205A
:10096000286D696E2074656D702000436F6C642083
:1009700065787472756465732061726520004D340A
:10098000323120696E636F727265637420706172B8
:10099000616D657465722075736167650A004D65E8
:1009A000736820706F696E74206F7574206F662095
:1009B00072616E67650A004F6666736574732041E5
:1009C00070706C696564004D494E2F4D415820543C
:1009D0006F6F2046617200546F6F206661722066EF
:1009E000726F6D204D494E2F4D41580A00454550BC
:1009F000524F4D204F4B0A00290A0020746F2000EF
:100A00003F5A206F7574206F662072616E67652093
:100A10002800290A0020746F20003F59206F757448
:100A2000206F662072616E676520282D00290A00FC
:100A300020746F20003F58206F7574206F662072FD
:100A4000616E676520282D004D383400446F6E6557
:100A5000207072696E74696E672066696C650A0041
:100A60004D3737004D333100496E76616C69642033
:100A700065787472756465720A0020204D323036D4
:100A8000205800486F6D65206F666673657400437B
:100A900061703A00434F4E4649475F4558504F52A8
:100AA00054004D4541545041434B00434F4F4C453A
:100AB000525F54454D5045524154555245004348AC
:100AC000414D4245525F54454D5045524154555257
:100AD0004500424142595354455050494E47004108
:100AE000524353004D4F54494F4E5F4D4F44455371
:100AF00000544845524D414C5F50524F5445435469
:100B0000494F4E00455854454E4445445F4D3230A0
:100B100000435553544F4D5F4649524D574152453E
:100B20005F55504C4F4144004C464E5F575249541C
:100B300045004C4F4E475F46494C454E414D4500A0
:100B40004155544F5245504F52545F53445F535494
:100B5000415455530053445F575249544500524540
:100B600050454154004D554C54495F564F4C554DDE
:100B700045005344434152440050524F4D50545F3E
:100B8000535550504F525400484F53545F414354B3
:100B9000494F4E5F434F4D4D414E445300454D45E7
:100BA0005247454E43595F504152534552004341CD
:100BB00053455F4C494748545F4252494748544E59
:100BC00045535300544F47474C455F4C49474854A1
:100BD0005300534F4654574152455F504F5745526B
:100BE000004255494C445F50455243454E54004CD9
:100BF0004556454C494E475F44415441005A5F5069
:100C0000524F42450052554E4F5554004155544F96
:100C10004C4556454C005052494E545F4A4F420095
:100C200050524F4752455353004155544F5245502F
:100C30004F52545F54454D50004155544F5245500A
:100C40004F52545F504F5300564F4C554D455452E0
:100C5000494300454550524F4D0042494E4152597B
:100C60005F46494C455F5452414E534645520053EE
:100C7000455249414C5F584F4E5F584F46460046DB
:100C800049524D574152455F4E414D453A4D617273
:100C90006C696E20322E312E322E3420284A756E29
:100CA00020323520323032342031373A33303A3244
:100CB000342920534F555243455F434F44455F55B8
:100CC000524C3A6769746875622E636F6D2F4D617F
:100CD000726C696E4669726D776172652F4D6172D3
:100CE0006C696E2050524F544F434F4C5F564552E3
:100CF00053494F4E3A312E30204D414348494E45DD
:100D00005F545950453A3344205072696E7465728D
:100D10002045585452554445525F434F554E543A1E
:100D20003120555549443A63656465326132662D18
:100D3000343161322D343734382D396231322D63FC
:100D400035356336326633363766660047322F47AD
:100D5000332062616420706172616D6574657273C5
:100D60000A00203B0020204D3835312058005A2DF4
:100D700050726F6265204F66667365740020573A43
:100D800000436F6F6C696E672E2E2E004531202553
:100D9000530020573A0042656420436F6F6C696EC0
:100DA000672E2E2E004265642048656174696E6767
:100DB0002E2E2E00206661696C65642120426164DC
:100DC000206865617465722069640A005049442096
:100DD0004175746F74756E650023646566696E6530
:100DE0002044454641554C545F004B6420004B69FC
:100DF00020004B7020002066696E6973686564216D
:100E00002050757420746865206C617374204B7079
:100E10002C204B6920616E64204B6420636F6E73DD
:100E200074616E74732066726F6D2062656C6F778B
:100E300020696E746F20436F6E66696775726174A6
:100E4000696F6E2E680A00504944204175746F74B2
:100E5000756E6500206661696C6564212074696D3A
:100E6000656F75740A00504944204175746F74753C
:100E70006E6500206661696C6564212054656D7043
:100E80006572617475726520746F6F206869676838
:100E90000A00504944204175746F74756E650050A6
:100EA0004944204379636C65730025532025692FDD
:100EB000256900204B643A2000204B693A2000202D
:100EC0004B703A200020436C617373696320504972
:100ED00044200A002054753A2000204B753A200027
:100EE000206D61783A2000206D696E3A2000206400
:100EF0003A200020626961733A2000486561746994
:100F00006E672E2E2E002073746172740A00504991
:100F100044204175746F74756E6500206661696C5C
:100F20006564212054656D70657261747572652009
:100F3000746F6F20686967680A00504944204175E2
:100F4000746F74756E6500504944204175746F74F8
:100F5000756E65004572723A207574663820666F4A
:100F60006E74206E6F7420696E697469616C697A41
:100F700065642E004572723A207574663820666F7B
:100F80006E74206E6F7420696E697469616C697A21
:100F900065642E004572723A207574663820666F5B
:100FA0006E74206E6F7420696E697469616C697A01
:100FB00065642E002000200020003A003A002568D9
:100FC000753A25303268750025303268753A25301B
:100FD0003268750025303268752725303268750013
:100FE000256875642025303268753A253032687579
:100FF0000042656400456E636C6F737572650045F1
:10100000002000250020202020202020002020205B
:101010002000657272001FE02010201020101020A8
:1010200010202010201030300840048003001FE002
:101030003FF03FF03FF01FE01FE03FF03FF03FF098
:101040000FC0078003003FFFF038007030FC3020F5
:10105000FC102078102030102C00D02E31D02F7BA7
:10106000D02F7BD02E31D02C00D020301020781003
:1010700020FC1030FC303800703FFFF03FFFF038AC
:1010800000703186302387102787902F87D02F0359
:10109000D02030102078102078102030102F03D06E
:1010A0002F87D02787902387103186303800703FF4
:1010B000FFF01FFFF81FFFF804104002082002088D
:1010C00020041040082080104100104100082080BA
:1010D0000410400000001FFFF81FFFF85072696EF7
:1010E000742041626F72746564004D323500506146
:1010F0007573696E672E2E2E004D32340046696C72
:101100002E204469612E004520696E206D6D5E338E
:101110000020082046616374002008204D6178009B
:101120002008204D696E004F6666004F6E004175C5
:10113000746F74656D7000402073746570732F6DEB
:101140006D00416476616E636564205365747469F3
:101150006E67730046696C616D656E740054656DF1
:1011600070657261747572650053746570732F6D6C
:101170006D00436F6E66696775726174696F6E00AA
:1011800053746F72652053657474696E6773004C95
:101190006F61642053657474696E6773004265649F
:1011A000205472616D6D696E670050726F626520C8
:1011B0005A204F6666736574004661646520486511
:1011C00069676874004F6666004F6E004265642070
:1011D0004C6576656C696E67004C6576656C20427F
:1011E0006564004732394E00473239004175746FEB
:1011F00020486F6D65004D6F74696F6E00000C0FB5
:1012000000FE07022503BB017FFE08FE08FE05085D
:101210000806000040F0C88888987810050808067D
:101220000000C0F88888888888F805050506000150
:101230002030F830200508080600002070F8202033
:101240002020E00509090600FF2070A8A8B88888BA
:101250007020070505070001D86C366CD805090910
:101260000600FFF8A88888888888A8F8050A0A0672
:1012700000FE205050505088A8A888700303030631
:10128000000340A040FFFFFFFFFFFFFFFFFFFFFF46
:10129000FFFFFFFFFFFFFFFFFFFFFF00000006054E
:1012A000FF01070706020080808080800080030322
:1012B00003060105A0A0A005060606000050F85090
:1012C00050F8500509090600FF2070A8A07028A852
:1012D0007020050707060000C8C810204098980530
:1012E000070706000040A0A040A89068010303067D
:1012F00002058080800309090601FF2040408080AC
:10130000804040200309090601FF80404020202042
:1013100040408005070706000020A8702070A82024
:101320000505050600012020F82020020303060120
:10133000FFC04080050101060003F8020202060119
:1013400000C0C005070706000008101020404080BC
:10135000050707060000708898A8C888700307076B
:1013600006010040C040404040E00507070600007D
:10137000708808102040F8050707060000F80810DC
:101380003008887005070706000010305090F810EC
:1013900010050707060000F880F0080888700507A8
:1013A00007060000304080F08888700507070600B7
:1013B00000F808101020202005070706000070889C
:1013C000887088887005070706000070888878088C
:1013D0001060020505060100C0C000C0C00206067C
:1013E0000601FFC0C000C0408003050506010120C2
:1013F00040804020050303060002F800F8030505BD
:101400000601018040204080050707060000708823
:1014100010202000200507070600007088B8A8B833
:101420008070050707060000708888F8888888059E
:101430000707060000F04848704848F0050707060F
:10144000000070888080808870050707060000F023
:101450004848484848F0050707060000F88080F033
:101460008080F8050707060000F88080F080808003
:1014700005070706000070888080988870050707B8
:10148000060000888888F888888803070706010016
:10149000E04040404040E0050707060000381010DB
:1014A000101090600507070600008890A0C0A0906B
:1014B00088050707060000808080808080F8050787
:1014C0000706000088D8A8888888880507070600CE
:1014D000008888C8A89888880507070600007088D3
:1014E0008888888870050707060000F08888F080E3
:1014F000808005070706000070888888A890680526
:101500000707060000F08888F0A090880507070606
:10151000000070888070088870050707060000F8D2
:1015200020202020202005070706000088888888C2
:101530008888700507070600008888888850502032
:1015400005070706000088888888A8A850050707AF
:10155000060000888850205088880507070600008C
:1015600088885020202020050707060000F8081072
:10157000204080F80309090601FFE0808080808018
:101580008080E0050707060000804040201010081A
:101590000309090601FFE020202020202020E0058B
:1015A00003030600052050880501010600FEF8032C
:1015B00003030601058040200505050600007008AC
:1015C0007888780507070600008080F0888888F012
:1015D0000505050600007080808870050707060075
:1015E0000008087888888878050505060000708856
:1015F000F08070050707060000304840E04040409A
:101600000507070600FE70888888780870050707B8
:101610000600008080F0888888880307070601009C
:101620004000C0404040E00409090601FE100030BF
:101630001010101090600507070600008080889049
:10164000E09088030707060100C04040404040E0AA
:10165000050505060000D0A8A8A8A80505050600F0
:1016600000B0C8888888050505060000708888884D
:10167000700507070600FEF0888888F0808005075F
:10168000070600FE788888887808080505050600A2
:1016900000B0C880808005050506000078807008CD
:1016A000F00507070600002020F820202018050577
:1016B00005060000888888986805050506000088EA
:1016C000888850200505050600008888A8A85005D0
:1016D000050506000088502050880507070600FE13
:1016E00088888850204080050505060000F81020F5
:1016F00040F80309090601FF204040408040404077
:10170000200109090602FF8080808080808080801F
:101710000309090601FF8040404020404040800509
:10172000030306000248A890FF5045544700504C60
:1017300041004261636B2D4C656674004261636BCE
:101740002D52696768740046726F6E742D52696716
:1017500068740046726F6E742D4C656674003F00AD
:101760004E65787420436F726E657200446F6E65CB
:10177000004E65787400526573746F72652044651D
:101780006661756C7473004C6F616420536574748A
:10179000696E67730053746F726520536574746962
:1017A0006E67730050726F6265205A204F666673D1
:1017B000657400416476616E63656420536574747A
:1017C000696E6773004D61696E004D32313120538F
:1017D000300A4D3131372055736572205363726979
:1017E000707420446F6E650064697361626C65207B
:1017F000736F66747761726520656E6473746F7061
:10180000733F004E4F005945530064697361626C29
:101810006520736F66747761726520656E6473749A
:101820006F7073004D61696E003F004261636B0031
:1018300053746F70004D32320041747461636820DC
:101840004D65646961004D3231005072696E7420DB
:1018500066726F6D204D656469610052656C6561EB
:101860007365204D6564696100437573746F6D2005
:10187000436F6D6D616E647300436F6E666967756B
:10188000726174696F6E0054656D70657261747514
:101890007265004D6F74696F6E00526573756D658A
:1018A000205072696E740054756E650053746F70C9
:1018B000205072696E7400506175736520507269B2
:1018C0006E7400496E666F2053637265656E003FEB
:1018D000005374617274205072696E740043616EBB
:1018E00063656C005072696E740043616E6E6F7454
:1018F00020656E746572207375626469723A2000A7
:1019000002202E2E000152656672657368004D61DB
:10191000696E002100486F74656E6420746F6F20DB
:10192000636F6C64004261636B0050726F63656546
:1019300064004D6F76652045787472756465720039
:101940004D6F74696F6E0044697361626C652053FA
:1019500074657070657273004D38340042656420A0
:101960004C6576656C696E67005472616D6D696E69
:10197000672057697A6172640053746F77205A2D1B
:1019800050726F6265004D343032004465706C6F88
:1019900079205A2D50726F6265004D34303100410C
:1019A00075746F20486F6D6500473238004D61696E
:1019B0006E00507265686561742024204265640081
:1019C00050726568656174202420456E640054651A
:1019D0006D7065726174757265002E172917436FFB
:1019E0006F6C646F776E0050726568656174202457
:1019F0000046616E20537065656400426564004E68
:101A00006F7A7A6C65004D61696E004D6561737522
:101A10007265004C6173742076616C7565200042BC
:101A20006564205472616D6D696E6700446F6E6508
:101A300000531747173C17321753656C65637420C2
:101A40004F726967696E00486F6D696E67205859FB
:101A50005A004732384C3000466C6F770046616E52
:101A600020537065656400426564004E6F7A7A6C3D
:101A700065005370656564004D61696E006F706547
:101A80006E00545249474745524544003A20007A77
:101A90005F70726F6265007A5F6D696E00795F6D6D
:101AA000696E00785F6D696E005265706F7274695F
:101AB0006E6720656E6473746F70207374617475E3
:101AC000730A0020746F6F206C6F6E6720657874E6
:101AD000727573696F6E2070726576656E74656479
:101AE0000A0020636F6C6420657874727573696F87
:101AF0006E2070726576656E7465640A00486F6D5D
:101B00006520257320466972737400000010C100BF
:101B10000040C0000000005761726E696E673A2095
:101B2000486F6D696E672042756D702044697669F3
:101B3000736F72203C20310A0002020400007E43D1
:101B40000000644300007A430000A0400000A04071
:101B50000000004053544F505045442E2000507216
:101B6000696E7465722073746F707065642064753B
:101B70006520746F206572726F72732E20466978CB
:101B800020746865206572726F7220616E642075C2
:101B90007365204D39393920746F20726573746113
:101BA00072742E202854656D70657261747572654B
:101BB0002069732072657365742E205365742069E3
:101BC00074206166746572207265737461727469E1
:101BD0006E67290A004572723A205A50524F4245A8
:101BE000005A2D50726F6265206661696C65640AE7
:101BF00000000075430000614300007A43000010BC
:101C0000C1000040C00000000053657474696E6735
:101C1000732053746F72656400290A00206279741E
:101C200065733B20637263200053657474696E674B
:101C3000732053746F726564202800454550524FDD
:101C40004D20496E697469616C697A65640A00485F
:101C5000617264636F6465642044656661756C7469
:101C60002053657474696E6773204C6F616465649A
:101C70000020286D6D2900203B204C6576656C693D
:101C80006E67200020204D3432302053004175749F
:101C90006F20426564204C6576656C696E67002034
:101CA000460020420020480020204D31343520538A
:101CB000004D6174657269616C206865617475704E
:101CC00020706172616D657465727300204A002036
:101CD00020473239205720490020204D3134392007
:101CE00043203B20556E69747320696E2043656CF8
:101CF000736975730A0054656D70657261747572ED
:101D00006520556E697473002020473231203B00F6
:101D10004C696E65617220556E697473004545505B
:101D2000524F4D206461746173697A6520657272E7
:101D30006F722E0A00202863616C63756C61746594
:101D40006429210A0020213D2000454550524F4D75
:101D500020435243206D69736D61746368202D20A8
:101D60002873746F726564292000454550524F4DA9
:101D700020436F72727570740A002053697A653A55
:101D80002000496E6465783A2000290A00206279B3
:101D90007465733B2063726320002073746F7265F7
:101DA000642073657474696E6773207265747269F8
:101DB000657665642028000000FA430000FA4300BD
:101DC00000A0400000C8418F42A042295CA042CD43
:101DD0002CC84371DDD343F4010000F4010000641A
:101DE00000000088130000204D61726C696E3D5642
:101DF0003838290A00454550524F4D207665727398
:101E0000696F6E206D69736D617463682028454544
:101E100050524F4D3D0020436F756E7420583A006C
:101E2000426564004531004500626564002C207302
:101E3000797374656D2073746F70706564212048C8
:101E400065617465725F49443A20004572723A20B8
:101E50004D415854454D50004D415854454D50202A
:101E60007472696767657265640048656174696E5C
:101E700067204661696C65640048656174696E67D6
:101E8000206661696C6564004572723A204D494E66
:101E900054454D50004D494E54454D502074726983
:101EA00067676572656400544845524D414C205245
:101EB000554E4157415900546865726D616C20520E
:101EC000756E6177617900202F002042403A002032
:101ED000403A007C3C3E5E2B3D3F2F5B5D3B2C2A15
:101EE000225C0053442063617264206F6B0A006FB0
:101EF00070656E526F6F74206661696C65640A006C
:101F0000766F6C756D652E696E6974206661696C9B
:101F100065640A004E6F20534420636172640A00B6
:101F20000A4D3234004D3233202573002E0A006FE3
:101F300070656E206661696C65642C2046696C650D
:101F40003A200046696C652073656C65637465644E
:101F50000A002053697A653A200046696C65206F53
:101F600070656E65643A2000454E442053554252D8
:101F70004F5554494E450A002220706F73002220AD
:101F8000706172656E743A2200535542524F555437
:101F9000494E452043414C4C207461726765743A48
:101FA000220053756263616C6C204F766572666CBB
:101FB0006F77004578636565646564206D6178209E
:101FC000535542524F5554494E45206465707468CC
:101FD0003A0057726974696E6720746F2066696C85
:101FE000653A2000667265736800646F696E670009
:101FF0002066696C653A20004E6F7720002F61756E
:10200000746F25632E6700022001400130013B01FF
:10201000400136016001310170012C01900127015E
:10202000B0012201C0011D01F001180110021301CD
:1020300030020E016002090190020401C002FF009B
:102040000003FA004003F5008003F000D003EB002A
:102050002004E6007004E100E004DC004005D70045
:10206000C005D2004006CD00D006C8008007C300DE
:102070003008BE00F008B900C009B400B00AAF00D3
:10208000B00BAA00D00CA500000EA000500F9B00C2
:10209000C01096005012910000148C00C0158700EB
:1020A000B0178200B0197D00D01B7800001E7300AD
:1020B00040206E0090226900F024640040275F00F9
:1020C00090295A00E02B5500102E500020304B0074
:1020D00010324600E033410090353C0010373700A5
:1020E00070383200A0392D00B03A2800A03B230000
:1020F000603C1E00103D1900903D1400103E0F0082
:10210000703E0A00C03E0500003F0000403FFBFF5C
:10211000803FF6FFC03FF1FF2020506C616E6E657E
:102120007242756666657242797465733A20002062
:1021300046726565204D656D6F72793A20002043C7
:102140006F6D70696C65643A204A756E2032352077
:10215000323032340A00204C61737420557064614F
:102160007465643A20323032342D30362D313620C9
:102170007C20417574686F723A20287365612C2049
:102180004D656761205A65726F290A004D61726C56
:10219000696E20322E312E322E340A0020536F66A3
:1021A00074776172652052657365740A0020576107
:1021B000746368646F672052657365740A00204217
:1021C000726F776E206F75742052657365740A00A4
:1021D0002045787465726E616C2052657365740A6F
:1021E00000506F77657255700A0073746172740ADB
:1021F000004732385859004D31303031006F6B0094
:102200006572726F722077726974696E6720746F7D
:102210002066696C650A00446F6E6520736176699B
:102220006E672066696C652E0A004D323900456E76
:102230006473746F70730025532025632025632019
:1022400025632025630020503A00656E6473746F27
:102250007073206869743A200000000001020009D0
:102260000A0000000004030807000000000000004E
:1022700000000000000000000024F404D9201BC46A
:102280000C5C0E9804C4095F0265077101F405F93E
:1022900000FB04B30048048700C1036900580355DC
:1022A0000003034500BE023A008402310053022AB3
:1022B000002902250004022000E4011C00C80119C5
:1022C00000AF011700980114008401130071011080
:1022D000006101100051010E0043010D0036010B99
:1022E000002B010B0020010B00150109000C010956
:1022F0000003010800FB000800F3000800EB0007E2
:1023000000E4000600DE000600D8000600D2000649
:1023100000CC000500C7000500C2000500BD000498
:1023200000B9000400B5000400B1000400AD0004D1
:1023300000A9000400A5000300A20003009F000400
:10234000009B000300980003009500020093000327
:1023500000900003008D0002008B00030088000243
:10236000008600020084000300810002007F00025A
:10237000007D0002007B000200790002007700016E
:102380000076000200740002007200010071000279
:10239000006F0002006D0001006C0002006A000185
:1023A000006900020067000100660001006500018D
:1023B0000064000200620001006100010060000191
:1023C000005F0002005D0001005C0001005B000195
:1023D000005A000100590001005800010057000197
:1023E0000056000100550001005400010053000098
:1023F0000053000100520001005100010050000193
:10240000004F0001004E0000004E0001004D000191
:10241000004C0001004B0000004B0001004A00018D
:102420000049000100480000004800010047000189
:102430000046000000460001004500000045000184
:10244000004400010043000000430001004200007E
:102450000042000100410000004100010040000175
:10246000003F0000003F0001003E0000003E000170
:10247000003D0000003D0001003C0000003C000069
:10248000003C0001003B0000003B0001003A00005E
:10249000003A000100390000003900010038000056
:1024A000003800000038000100370000003700014C
:1024B0000036000000360000003600010035000044
:1024C0000035000000350001003400000034000039
:1024D000003400010033000000330000003300012D
:1024E0000032000000320000003200010031000024
:1024F0000031000000310001003000000030000019
:1025000000300001002F0000002F0000002F00000D
:10251000002F0001002E0000002E0000002E000100
:10252000002D0000002D0000002D0000002D0001F6
:10253000002C0000002C0000002C0000002C0001EA
:10254000002B0000002B0000002B0000002B0001DE
:10255000002A0000002A0000002A0000002A0001D2
:1025600000290000002900000029000000290000C7
:1025700000290001002800000028000000280000B9
:1025800000280000002800010027000000270000AC
:10259000002700000027000000270001002600009F
:1025A0000026000000260000002600000026000192
:1025B0000025000000250000002500000025000087
:1025C0000025000000250001002400000024000078
:1025D000002400000024000000240001002300006B
:1025E000002300000023000000230000002300005F
:1025F0000023000000230001002200000022000050
:102600000022000000220000002200000022000141
:102610000021000000210000002100000021000036
:102620000021000000210000002100010020000026
:10263000002000000020000000200000002000001A
:10264000002000000020000000200001001F00000A
:10265000001F0000001F0000001F0000001F0000FE
:10266000001F0000001F0001001E0000001E0000EF
:10267000001E0000001E00000024F4D43050C38E61
:1026800020C2A24017828B7011127A910D816CD9F1
:102690000AA861E108C7586607615143061E4B5DF1
:1026A00005C145A7041A411104093D980371393148
:1026B000034036DB0265339102D4305402802E1D74
:1026C00002632CEE01752AC501B028A001102781F4
:1026D000018F2564012B244B01E0223401AC211F22
:1026E000018D200D01801FFC00841EED00971DDF71
:1026F00000B81CD200E61BC600201BBC00641AB246
:1027000000B219A8000A19A0006A189900D11791FF
:102710000040178B00B516840031167E00B3157982
:10272000003A157300C7146F0058146A00EE136660
:10273000008813630025135E00C7125B006C1257FC
:102740000015125400C111510070114F0021114B9E
:1027500000D61049008D1047004610440002104278
:1027600000C00F4000800F3E00420F3C00060F3BB0
:1027700000CB0E3800930E37005C0E3500270E3468
:1027800000F30D3200C10D3100900D3000600D2EB0
:1027900000320D2D00050D2C00D90C2B00AE0C299C
:1027A00000850C29005C0C2700350C27000E0C2638
:1027B00000E80B2400C40B2400A00B23007D0B2396
:1027C000005A0B2100390B2100180B2000F80A1FBA
:1027D00000D90A1E00BB0A1E009D0A1D00800A1DAA
:1027E00000630A1C00470A1B002C0A1B00110A1A6E
:1027F00000F7091A00DD091900C4091900AB09190D
:1028000000920917007B091800630917004C09168C
:102810000036091600200916000A091500F50815EA
:1028200000E0081400CC081400B8081400A4081430
:1028300000900813007D0812006B0813005808125E
:102840000046081200340811002308110012081174
:102850000001081100F0071000E0071000D0071079
:1028600000C0071000B0070F00A107100091070E6D
:102870000083070F0074070F0065070E0057070E4F
:102880000049070E003B070D002E070E0020070D24
:102890000013070D0006070D00F9060C00ED060DEC
:1028A00000E0060C00D4060C00C8060C00BC060CA8
:1028B00000B0060C00A4060B0099060C008D060B58
:1028C0000082060B0077060B006C060B0061060AFF
:1028D0000057060B004C060A0042060A0038060A9A
:1028E000002E060A0024060A001A060A001006092D
:1028F0000007060A00FD050900F4050900EB0509BB
:1029000000E2050900D9050900D0050900C705093D
:1029100000BE050900B5050800AD050800A50509BC
:10292000009C050800940508008C05080084050833
:10293000007C050800740508006C050700650508A3
:10294000005D050700560508004E0507004705070E
:10295000004005080038050700310507002A050773
:1029600000230507001C050600160507000F0507D4
:10297000000805060002050700FB040600F5040731
:1029800000EE040600E8040600E2040700DB04068B
:1029900000D5040600CF040600C9040600C30406DF
:1029A00000BD040600B7040600B1040500AC04062F
:1029B00000A6040600A00405009B0406009504057B
:1029C00000900406008A04050085040500800406C2
:1029D000007A04050075040500700405006B040509
:1029E0000066040500610405005C04050057040549
:1029F00000520405004D0405004804050043040589
:102A0000003E0404003A04050035040500300404C7
:102A1000002C04050027040400230405001E040400
:102A2000001A04040016040500110404000D040437
:102A300000090405000404040000040400FC03046D
:102A400000F8030400F4030400F0030400EC0304A2
:102A500000E8030400E4030400E0030400DC0304D2
:102A600000D8030400D4030400D0030400CC030402
:102A700000C8030300C50303005D2E00006E2300A1
:102A80000013180000AF0E00003D080000630400B2
:102A90000045020000270100004D6F766520246D7F
:102AA0006D00302E303235004D6F766520302E317E
:102AB0006D6D004D6F766520316D6D004D6F7665E3
:102AC0002031306D6D004D6F76652041786973005F
:102AD0004D6F7665202A004D6F76652040002000FE
:102AE0005072696E742066726F6D204D6564696105
:102AF0000020002000486F6D696E67204661696C98
:102B0000656400FFFFFF50726F62696E6720466167
:102B1000696C65640A0050726F62696E6720466175
:102B2000696C656400205A3A200020593A2000421E
:102B3000656420583A200043616E6E6F74206F7098
:102B4000656E207375626469722000220A00556EFA
:102B50006B6E6F776E20636F6D6D616E643A2022CD
:102B600000204500205A0020590020204D393220F5
:102B7000580053746570732070657220756E6974A7
:102B800000DB0FC93F45BCDA3F8FB30240FCF027A2
:102B90004056946140FE4B9B4084A5D840E02318EA
:102BA00041346A5641E859974164DBD5416E271795
:102BB00042B4B75542CE1A9742C8AED542B5885AEC
:102BC00043D40684BFA65FA7BF7443E0BF10B11A09
:102BD000C01C2C58C0E8F697C0B849D6C04E4E1756
:102BE000C124D355C1802497C1A0B5D5C1121A17ED
:102BF000C244AE55C2781797C26CACD5C267885A2A
:102C0000C320746F6F206C6F6E6720657874727567
:102C100073696F6E2070726576656E7465640A0004
:102C200020636F6C6420657874727573696F6E20B1
:102C300070726576656E7465640A006F6B0A005287
:102C40006573656E643A20000000220025002800AC
:102C50002B0000002100240027002A0002020202AB
:102C60000202020204040404040404040303030330
:102C70000303030301010101010101010102040831
:102C80001020408001020408102040800102040846
:102C900010204080804020100804020120453A00A6
:102CA000205A3A0020593A00583A004572726F7221
:102CB0002077726974696E6720746F2045455052A1
:102CC0004F4D210A003344205072696E74657220A2
:102CD00052656164792E005072696E74696E672E58
:102CE0002E2E005072696E742050617573656400F9
:102CF00085E536EC11241FBECFEFD0E4DEBFCDBF9B
:102D000084B78093CC1414BE0FB6F894A895809124
:102D10006000886180936000109260000FBE13E035
:102D2000A0E0B1E0ECEDF3EF01E00BBF02C00790D3
:102D30000D92A433B107D9F724E1A4E3B3E001C0B5
:102D40001D92AC3CB207E1F716E1C9E7D6E104C039
:102D50002197FE010E9421F5C837D107C9F70E94CB
:102D600086E60C94E2F90C940000CF93DF93EC011B
:102D7000CB01BA010E94AFF0688379838A839B8379
:102D8000DF91CF910895CF93DF93EC01CB01BA018E
:102D90000E94AFF020E030E048EC52E40E9450F690
:102DA0002FE632E143E85AE30E9474F568837983A1
:102DB0008A839B83DF91CF910895CF93DF93EC01BA
:102DC000CB01BA010E94AFF020E030E048EC52E4C1
:102DD0000E9450F62FE632E143E85AE30E9474F570
:102DE000688379838A839B83DF91CF910895FC0167
:102DF000518340830895CF93DF93EC01CB01BA0157
:102E00000E94AFF020E030E04AE754E40E9450F620
:102E100027E137EB41ED58E30E9474F5688379832D
:102E20008A839B83DF91CF910895FC01A081B181BA
:102E30001C92A281B3818C918F5F8C930280F3816D
:102E4000E02D90818CE0989F800D1124EAE9F2E159
:102E500013AE84AF0895119800C087FD43C0419818
:102E600000C0119A00C000C0119800C086FD46C085
:102E7000419800C0119A00C000C0119800C085FDA3
:102E80003BC0419800C0119A00C000C0119800C01A
:102E900084FD30C0419800C0119A00C000C0119854
:102EA00000C083FD25C0419800C0119A00C000C039
:102EB000119800C082FD1AC0419800C0119A00C04C
:102EC00000C0119800C081FD0FC0419800C0119A48
:102ED00000C000C0119800C0419800C0119A00C005
:102EE00000C00895419ABCCF419AF0CF419AE5CFF6
:102EF000419ADACF419ACFCF419AC4CF419AB9CF04
:102F000090E080E00895CF93DF93C0918107D09146
:102F1000820781E0CE31D105E4F020E030E040E0EE
:102F20005FE360917D0770917E0780917F079091AC
:102F300080070E9474F50E94B8F66C1B7D0B77FF2A
:102F400003C071956195710981E0633071050CF0E2
:102F500080E0DF91CF910895CF93DF93DB01F901FA
:102F60009C919130C1F0943080F094509C938830C3
:102F7000D1F480819181009771F0019791838083D2
:102F8000480F591FEA01188206C08C3539F49C5F3E
:102F90009C93943041F4DF91CF9108958B3339F7AE
:102FA00081E08C93F8CF20813181B9016F5F7F4F31
:102FB00071836083420F531FEA018883808191816E
:102FC0008F3591056CF7E7CF0F931F9381E0009148
:102FD000EE131091EF132091F0133091F113409103
:102FE000EA135091EB136091EC137091ED130417F9
:102FF00015072607370708F480E01F910F91089501
:1030000090E080E008952091D812833021F425FDCE
:103010000CC024FD0CC030E0A90102C055954795B5
:103020008A95E2F7CA018170089581E0089580E0F1
:1030300008958091A10484FD0BC08091A30487FDB5
:1030400007C09091A404937081E019F480E0089582
:1030500081E008952FEB280F2A3108F047C0E22FB6
:10306000F0E08091A1049091A204A091A304B091FA
:10307000A40404C0B695A795979587952A95D2F78D
:1030800080FD02C081700895E957FB4FE081EE2377
:1030900041F18091C6079091C707E80FF92FF11D04
:1030A000808190ED980F9A3030F08E3251F481810A
:1030B00080538A3098F4F0937C04E0937B0481E0A1
:1030C00008958D3211F08B3249F4818190ED980F83
:1030D0009A3088F38E3211F48281EACFF0E0E0E09A
:1030E000EACF10927C0410927B04E9CF80E008952F
:1030F000CF93DF9385E4AEDF882309F188E0409128
:10310000A1045091A2046091A3047091A404972F8C
:103110009170C92F90E0D92FCC0FDD1F71FB2227B2
:1031200020F930E0220F331F220F331FC22B67FB21
:10313000442740F9C42B8C2BDF91CF91089580E078
:10314000DECF88DF882341F081E020917B0430913D
:103150007C04232B09F480E0089580E090E0A0E84F
:10316000B0E48093740190937501A0937601B093BD
:1031700077018AEF91E00E94EB9680E090E0A0EF6B
:10318000B1E480936C0190936D01A0936E01B093B4
:103190006F018093700190937101A0937201B093BD
:1031A0007301E0913505EE0FFF0BE652FE4F808173
:1031B00091818330910549F184309105D9F10297CD
:1031C00061F480E090E0A3E4B3E480936C01909319
:1031D0006D01A0936E01B0936F0182EE91E00E94A9
:1031E000EB96109274011092750110927601109274
:1031F00077018AEF91E00E94EB96809135058F5F11
:103200008430ECF480933505089580E090E0A3E4E9
:10321000B3E480936C0190936D01A0936E01B09321
:103220006F018093700190937101A0937201B0932C
:103230007301D3CF80E090E0A3E4B3E4F2CF109227
:1032400035050895CF92DF92EF92FF920E94AFF082
:103250006B017C0120E030E0A9010E94A9F02DEB78
:1032600037E346E055E387FF04C02DEB37E346E044
:1032700055EBC701B6010E9474F56B017C0120E09B
:1032800030E0A9010E94A9F020E030E040E05FE3D7
:1032900087FF04C020E030E040E05FEBC701B601EB
:1032A0000E9474F50E94B8F6CB010E94889EFF90A0
:1032B000EF90DF90CF900895CB010C94889E8F9271
:1032C0009F92AF92BF92CF92DF92EF92FF926B01EB
:1032D0007C0120E030E0A9010E94A9F087FDC3C075
:1032E0006DEB77E386E095E3A70196010E9474F504
:1032F0006B017C0120E030E0A9010E94A9F087FF6A
:1033000004C0F7FAF094F7F8F09442E050E0C701F7
:10331000B6010E9434A06B017C0160E280E4C81613
:1033200082E4D8068FE0E806F1048CF0C701B6010C
:1033300020E432E44FE050E00E94A6F4CA01B90153
:103340002AE030E040E050E00E94A6F4605D609327
:10335000A60760E280EAC81686E8D80681E0E8069B
:10336000F1048CF0C701B60120EA36E841E050E0F4
:103370000E94A6F4CA01B9012AE030E040E050E022
:103380000E94A6F4605D6093A70760E280E1C81622
:1033900087E2D806E104F1048CF0C701B60120E110
:1033A00037E240E050E00E94A6F4CA01B9012AE0E9
:1033B00030E040E050E00E94A6F4605D6093A80712
:1033C00060E288EEC81683E0D806E104F1048CF0D0
:1033D000C701B60128EE33E040E050E00E94A6F4B9
:1033E000CA01B9012AE030E040E050E00E94A6F4B2
:1033F000605D6093A907C701B60124E630E040E0B4
:1034000050E00E94A6F48AE0882E912CA12CB12CC9
:10341000CA01B901A50194010E94A6F4605D609300
:10342000AA078EE28093AB07C701B601A5019401FC
:103430000E94A6F46B01CA01B901A50194010E9482
:10344000A6F4605D6093AC0780E3C80EC092AD0740
:1034500086EA97E0FF90EF90DF90CF90BF90AF901B
:103460009F908F9008956DEB77E386E095EB3CCFCE
:103470000E94AFF020E030E048EC52E40E9450F6A9
:103480002FE632E143E85AE30E9474F518CF0E9418
:10349000AFF020E030E048EC52E40E9450F62FE616
:1034A00032E143E85AE30E9474F50C9418B0CF92CD
:1034B000DF92EF92FF92CF93DF9300D000D0CDB791
:1034C000DEB70E94AFF020E030E04AE754E40E940B
:1034D00050F627E137EB41ED58E30E9474F56B019C
:1034E0007C0120E030E0A9010E94A9F02DEB37E338
:1034F00046E055E387FF04C02DEB37E346E055EB8C
:10350000C701B6010E9474F569837A838B839C831B
:10351000CE0101960E949AD10F900F900F900F90BC
:10352000DF91CF91FF90EF90DF90CF9008950C94B2
:10353000AF890C94AF89CF92DF92EF92FF920F93F5
:103540001F930E941AD40091B1041091B2042091EB
:10355000B3043091B4046B017C01C01AD10AE20AB1
:10356000F30A9701860137FD11C02091B004209520
:103570002093B0046A547C4F8F4F9F4F6093B104E7
:103580007093B2048093B3049093B40481E090915B
:10359000B004911101C080E01F910F91FF90EF9056
:1035A000DF90CF900895CF93DF93C0918107D091A2
:1035B0008207209729F160917D0770917E078091A5
:1035C0007F07909180070E94B8F66E5F7F4F249727
:1035D0006C177D07ACF470931506609314060E9477
:1035E0001AD4605A75418F4F9F4F6093160670939F
:1035F00017068093180690931906DF91CF910895CE
:1036000010921606109217061092180610921906BC
:10361000F4CFB0E0A0E0EFE0FBE10C9445F56B01E6
:10362000E9014A3009F4D5C0453109F081C0DB0118
:103630001296ED91FC91F28096818781139A00C0D9
:103640000000E6E2F0E03197F0F7092F182FEF2C99
:10365000E29420EFE22230E1B32EBF0CE80188EFC4
:10366000FADB00C0000086E290E00197F0F7BFE1CE
:10367000BF1508F49BC08F2D80778068ECDB8E2D02
:10368000EADB00C0000086E290E00197F0F780E8F6
:10369000E2DB80E0E0DB00C0000086E290E0019722
:1036A000F0F78AEFD8DB00C0000086E290E00197D7
:1036B000F0F7005F1F4F8881807FCDDB8991829575
:1036C000807FC9DBC017D107B1F700C0000086E2D8
:1036D00090E00197F0F7F394E0E1EE0EFB10BECF1F
:1036E0001398D6011296ED91FC9180819281980FEA
:1036F00092832181921708F09FC194819F5F9483E8
:103700009381890F821710F08FEF820F8383458199
:1037100050E0440F551F70E060E0868197810E9461
:103720008EF981E0CDB7DEB7E9E00C9461F5DEC13A
:10373000FB0102811381423309F485C108F48DC174
:10374000463409F475C1473409F482C14B3349F753
:1037500089812B81D80112967C91129713963C9106
:10376000213009F4BFC1233009F0A0C148EF480F50
:10377000582F91E0341708F490E031E0541708F026
:1037800030E0492F432B61E0571708F460E04623EF
:1037900011F4932331F2FA8030E0F901EA53FE4F3D
:1037A000D0802E533E4FF901E08099C180EE8F0DFD
:1037B0008068807F50DB8F2D8295807F4CDB00C03E
:1037C000000086E290E00197F0F780E844DB80E8B3
:1037D00061CF0B9A1398399A4198099A119A139AC2
:1037E00000C0000086E290E00197F0F788E790E0E3
:1037F000CEE9DFE0FE013197F1F70197D9F788EFC5
:103800002ADB00C0000086E290E00197F0F780E23A
:1038100022DB80E020DB00C0000086E290E0019720
:10382000F0F780E018DB80E816DB00C0000086E2DD
:1038300090E00197F0F780E00EDB80E10CDB00C048
:10384000000086E290E00197F0F7CE010197F1F7D2
:10385000CE010197F1F7CE010197F1F7CE01019763
:10386000F1F7CE010197F1F7CE010197F1F7CE0103
:103870000197F1F7CE010197F1F7CE010197F1F72A
:10388000CE010197F1F7CE010197F1F7CE01019733
:10389000F1F7CE010197F1F7CE010197F1F72197EA
:1038A000F1F780E2D8DA80E4D6DA00C0000086E2E0
:1038B00090E00197F0F780E2CEDA80E6CCDA00C043
:1038C000000086E290E00197F0F7D0E0C0E08C2F96
:1038D00080778068C0DA8D2FBEDA00C0000086E2F3
:1038E00090E00197F0F780E8B6DA80E0B4DA00C043
:1038F000000086E290E00197F0F78AEFACDA00C0B2
:10390000000086E290E00197F0F780E2119800C095
:10391000419800C0119A00C000C0119800C04198A1
:1039200000C0119A00C000C0119800C0419800C0AA
:10393000119A00C000C0119800C0419800C0119AAF
:1039400000C000C0119800C0419800C0119A00C08A
:1039500000C0119800C0419800C0119A00C000C07A
:10396000119800C0419800C0119A00C000C0119881
:1039700000C0419800C0119A00C000C0119800C05A
:10398000419800C0119A00C000C0119800C0419831
:1039900000C0119A00C000C0119800C0419800C03A
:1039A000119A00C000C0119800C0419800C0119A3F
:1039B00000C000C0119800C0419800C0119A00C01A
:1039C00000C0119800C0419800C0119A00C000C00A
:1039D000119800C0419800C0119A00C000C0119811
:1039E00000C0419800C0119A00C000C000C0000093
:1039F000E6E2F0E03197F0F7815009F087CF88EFE9
:103A00002ADA00C0000086E290E00197F0F7CF5F6D
:103A1000D05FC03209F05BCF80E01DDA80EC1BDAAA
:103A200000C0000086E290E00197F0F7139879CE8D
:103A3000F8018581888375CE80E0CDB7DEB7E9E0F7
:103A40000C9461F553C0B901C8010E941DD569CE1F
:103A5000D80111968C91888364CE443191F047311E
:103A600009F05FCE1882D80112968C911297898343
:103A700015968C91159781508A8313968C918B8320
:103A800050CED80115964C91159750E0440F551F14
:103A900070E060E016968D919C910E948EF9F8017D
:103AA000128280818150838314823BCE381708F4C0
:103AB00038CE871708F435CEFA80E12CD12C24308B
:103AC00070F46ACEBE01C8010E941DD5898198811B
:103AD0009D0D98838E0D8983FF0C09F422CEF7FE8D
:103AE000F6CFF0CF58E0580F482F43CE2091AE04C8
:103AF000022E000C330B8217130641F08093AE04A4
:103B00006DEF71E18EE992E10C9471D70895EF9217
:103B1000FF920F931F93CF93DF93EC018B017A01F8
:103B20008A859B858617970731F0888199810E9445
:103B300071D71B870A87B701888199810E9406D1B6
:103B40002E813F81820F932F911D9F838E8390E062
:103B500080E0CDB7DEB7E6E00C9464F5B0E0A0E01D
:103B6000E4EBFDE10C9444F5EC017B018A018A85CC
:103B70009B858617970731F0888199810E9471D7BC
:103B8000FB86EA8688859985019609F5CC80DA80DE
:103B90008E81D80EA880B980D5015596ED91FC9103
:103BA000C5010995C80E780110E0F70121917F0148
:103BB00021111FC08E819F81810F911D9F838E8354
:103BC00090E080E0CDB7DEB7EAE00C9460F5EE80DF
:103BD000FF80B801888199810E9406D18E0D9F2DAA
:103BE000911D288539852817390780F681E090E0F6
:103BF000E9CF4C2D6D2DC5010E94C9D7D80E180FE5
:103C0000D4CFB0E0A0E0E7E0FEE10C9447F5EC0192
:103C1000D62E1CAD0BAD7C0184E0E80EF11CE98DC5
:103C2000FA8DC7010995412F480F2D2D602FC7012F
:103C30000E94C9D79BAD890F8BAF81E090E0CDB7D3
:103C4000DEB7E7E00C9463F5CF93C091C704CC23B3
:103C5000C9F14CE050E060E270E089EB94E00E9432
:103C60008EF92C2F30E060E2C43630F0C90164E6F2
:103C700070E00E940EF5605D6093AB0780E2CA3091
:103C800058F0EAE0F0E0C901BF010E940EF5CB0157
:103C9000BF010E940EF5805D8093AC07C9016AE008
:103CA00070E00E940EF5805D8093AD0783E0EBEA43
:103CB000F7E0ADEBB4E001900D928A95E1F785E273
:103CC0008093C004CF910895ACE0B0E0EAE6FEE155
:103CD0000C9446F5F090D512E090D6122091B504E0
:103CE000211112C044E75FE06E2D8F2D0E9422D873
:103CF00090E080E0F80EF092D512E092D61299276B
:103D00002C96E8E00C9462F5C090A212D090A31219
:103D10002EE932E13A8329832F2D30E03C832B8337
:103D20002E2D30E03E832D8318861F827A87698787
:103D30001C861B860EEA1DE19E012F5F3F4F46E663
:103D400053E7BC01C6010E945AC9B6018EE992E14F
:103D50000E9471D78F819885CDCF80917B049091FF
:103D60007C04009731F04AE050E070E060E00C9491
:103D7000D1EE60E070E0CB0108950F931F93CF93D5
:103D800080917B0490917C040097F9F0FC018F01F5
:103D9000C1912C2F2F7DA1F0C53431F0C53621F013
:103DA000C83511F0C83799F7F801108270E060E06B
:103DB0000E9451ECF801C083CF911F910F9108959B
:103DC00070E060E00E9451ECF7CF60E070E0CB0162
:103DD000F3CFCF92DF92EF92FF926A017B01B1D9CC
:103DE000882319F0CADF6B017C01C701B601FF907F
:103DF000EF90DF90CF9008954F925F926F927F92F5
:103E0000AF92BF92CF92DF92EF92FF920F931F93E8
:103E1000CF938EEBA82E81E0B82E9AE4E92E95E0A0
:103E2000F92E0CE611E027E6C22E21E1D22EC0E0E9
:103E3000F50181915F0185D9882309F476C09DDF62
:103E40002B013C018C2FDFD8882309F464C0F801D2
:103E50002081318142815381C301B2010E9474F5F6
:103E6000F7016083718382839383CF5FF4E0EF0E69
:103E7000F11C0C5F1F4F84E0C80ED11CC330C1F68B
:103E800085E45FD9882309F45BC077DF6B017C018F
:103E900083E0B9D8882371F02091780130917901BD
:103EA00040917A0150917B01C701B6010E9474F5DF
:103EB0006B017C01C0925605D0925705E0925805DF
:103EC000F092590540E050E0BA0186E482DF20E03C
:103ED00030E0A9010E949AF718167CF44EDF20E02A
:103EE00030E040E752E40E9450F66093280170935E
:103EF000290180932A0190932B01CF911F910F915B
:103F0000FF90EF90DF90CF90BF90AF907F906F9039
:103F10005F904F900895F601208131814281538155
:103F2000C301B2010E9473F59BCFF801808191819A
:103F3000A281B381F70180839183A283B38395CF5C
:103F40008091780190917901A0917A01B0917B01E3
:103F50008093560590935705A0935805B093590543
:103F6000B1CF80917B0490917C04009731F04AE0BE
:103F700050E070E060E00C94A6ED60E070E0CB01F2
:103F80000895EFDFCB010895CF93DF93EB01D9D8EC
:103F9000882311F0F6DFEC01CE01DF91CF91089577
:103FA000E0DF97FD0AC0DDDF6F3F710581059105F8
:103FB00009F02CF4D6DF862F089580E008958FEF66
:103FC000089580917B0490917C04892B39F0E8DF7F
:103FD00091E0811101C090E0892F089591E0FCCF1C
:103FE000CF93DF93C82FD62FACD8882321F0E9DFF9
:103FF000DF91CF9108958C2F2DD88111F9CF8D2F7E
:10400000F7CFCF93C62F9DD8882311F0C9DFC82FD3
:104010008C2FCF910895B0E0A0E0E1E1F0E20C94A4
:104020004CF520E24F8158856E818D810E947DD0B4
:10403000E2E00C9468F50F931F93522F2091981291
:10404000309199122817390731F110926205909337
:104050009912809398128B0130E020E00093B4070E
:104060001093B5072093B6073093B7074093AF0777
:104070005093B007815B984321F410923805109259
:10408000310582E08093630181E08093B107109253
:104090003705109234051F910F910895E091310575
:1040A000E63028F581E08E0F809331054091B4070A
:1040B0005091B5076091B6077091B7072091AF078F
:1040C0009091B0078091380539E0E39FF001112409
:1040D000E550FB4FA0919812B0919912B183A08343
:1040E00042835383648375832683978380870895EF
:1040F00020E040E070E060E081EB98E39CCFCF935C
:10410000DF93C0913105CC23B1F0C150C09331058C
:1041100089E0C89FE0011124C550DB4F6A817B8193
:104120002F814E818881998186DF8885809338052B
:10413000DF91CF910895DCDFFBCF10923805DFCF00
:1041400063E972E084E690E00E94B2A770E060E06C
:104150008AE090E00E94B2A76AEB72E084E690E009
:104160000C94B2A70E941486882309F0E9CF68E274
:1041700070E080E991E00C94B2A70E94CDB588234D
:1041800009F0DECF68E270E080E991E00C94B2A71C
:104190000E94D299D5CFB0E0A0E0E1EDF0E20C941E
:1041A0004CF58D81282F082E000C330B9091CB11EC
:1041B0009217130609F08CF48093CB119E01285FAF
:1041C0003F4F4E815F816AE270E080EA91E10E9498
:1041D00071F010929F1110929E11E2E00C9468F51C
:1041E0000F931F93CF93DF938C016F3F19F41092BD
:1041F000CB1160E02091CB11862F062E000C990B7D
:104200002817190609F014F56093CB11C8010E9414
:10421000F8EF800F911FEC01C01BD10BCB32D10501
:104220003CF00197FC012491207C2038D1F3F3CF9E
:10423000DD27AE01B80180EA91E10E9419F0C05675
:10424000DE4E188210929F1110929E11DF91CF9135
:104250001F910F910895CF938091F304811109C0AC
:104260008EEE90E1909333058093320581E0809348
:10427000F30414DF20E040E070E060E088EA98E2B8
:10428000DADEC1E0C09338050E94D38956DFC093BF
:10429000380560E083EE9CE2A3DF8AEE90E1909324
:1042A000660780936507CF9108950F931F930E942F
:1042B0001AD40091EE041091EF042091F004309193
:1042C000F104601B710B820B930B97FD0CC089B13D
:1042D00083FB882780F991E089274A9B8260309B85
:1042E00084608093ED048091ED0481709091ED04E1
:1042F00091FD82609091EC04981749F0813009F1AA
:1043000048F0823079F0833091F08093EC041F9173
:104310000F910895913079F09230B9F79091EB04B4
:1043200091500CC0992339F09330C1F3EECF913006
:10433000A9F3923051F79091EB049F5F9093EB04B7
:10434000E4CF992359F3933001F7F5CFCF92DF9261
:10435000EF92FF92CF93C82F0E941AD46B017C0179
:1043600024EA30E74DE75FE3609122017091230179
:1043700080912401909125010E94A9F087FD18C029
:104380008AEF90E0A0E0B0E08C0D9D1DAE1DBF1D3A
:104390008093DB049093DC04A093DD04B093DE04EF
:1043A000C0931801CF91FF90EF90DF90CF900895C8
:1043B00080E090E0DC01E8CF8F3010F48F5F08954B
:1043C0008F5008954F925F926F927F928F929F923B
:1043D000AF92BF92CF92DF92EF92FF921F93CF9353
:1043E000DF93CDB7DEB760970FB6F894DEBF0FBE90
:1043F000CDBF0E941AD46B017C01809118018F3FC0
:1044000009F443C00E941AD48090DB049090DC042D
:10441000A090DD04B090DE04681979098A099B092F
:1044200097FD33C080917212C7DF90917312891784
:1044300061F1E0911801E43008F05FC024E0E29FF0
:10444000F0011124E653FE4F80819181A281B38156
:104450008D879E87AF87B88B19821A821B821C8238
:104460001D821E821F82188619861A861B861C864C
:10447000AE014F5F5F4FBE01635F7F4F8CE691E0FF
:104480000E9413CC8FEF809318010FDF8091ED0411
:1044900082FF3CC08091EA0481113AC091E0909380
:1044A000EA048091F2048927809390071092F20425
:1044B00083E0809363011092ED040E941AD46C5043
:1044C0007E4F8F4F9F4F6093EE047093EF04809365
:1044D000F0049093F10468E873E182E090E00E94B8
:1044E000B2A716E01150A1F00E94C9A462E070E0EA
:1044F00080E090E00E9491D3F5CF8091640190918B
:104500006501A0916601B0916701A2CF1092EA0403
:104510008091E6049091E704A091E804B091E90449
:10452000A7019601281B390B4A0B5B0BDA01C90165
:10453000B7FF05C080913705882309F4C5C1D701AD
:10454000C6018C599F4FAF4FBF4F8093E6049093A5
:10455000E704A093E804B093E9046091EB04062E0D
:10456000000C770B77FF03C07195619571099091ED
:10457000EB048091E504981365C0633008F062C0D5
:104580001092EB048091EB048093E504643008F012
:1045900069C0809190078111E7C080919812909135
:1045A0009912815B984341F480911901882309F4A1
:1045B000EDC08150809319010E94CF8B8090E0075D
:1045C0009090E107A090E207B090E30781110E946C
:1045D000DC8BD501C4013AE0B695A79597958795F0
:1045E0003A95D1F78F3F4FEF9407A105B10520F021
:1045F0008FEF9FEFA0E0B0E0969587952091630143
:104600002111D6C03091370531118DC1809198129A
:1046100090919912815B984309F46CC1809138059F
:10462000811168C18091E1049091E204A091E304BA
:10463000B091E404C81AD90AEA0AFB0AF7FC68C177
:1046400057DD66C1633009F09DCF8091EB0487FD93
:1046500007C081E0880F880F8093EB0464E092CF5D
:104660008FEFF8CF8091BC0721E030E040E050E0D0
:10467000882309F456C08090B8079090B907A0909D
:10468000BA07B090BB0781149104A104B104E9F109
:1046900070E090E080E00E94ADF020E030E040E883
:1046A0005EE30E940EF12B013C01C701B6016819BF
:1046B00079098A099B090E94ADF09B01AC01C301F5
:1046C000B2010E9450F620E030E04AE754E40E9434
:1046D0000EF14B015C0120E030E040EA52E40E9420
:1046E0009AF724E630E040E050E087FF12C020E077
:1046F00030E040EF51E4C501B4010E949AF72AE08E
:1047000030E040E050E087FF04C021E030E040E0CE
:1047100050E0C092B807D092B907E092BA07F09281
:10472000BB07A091EB040A2E000CBB0B0E94CCF43B
:1047300024E030E040E050E00E94A6F48091B4070D
:104740009091B507A091B607B091B707820F931F5C
:10475000A41FB51F8093B4079093B507A093B60725
:10476000B093B7071092EB04D701C6018856954C59
:10477000AF4FBF4F8093E1049093E204A093E30412
:10478000B093E40481E08093630107CF8CE08093D1
:1047900019018091DF049091E004009729F00197BE
:1047A0009093E0048093DF0481E08093630104CF61
:1047B000009741F04091DF045091E00448175907F9
:1047C00008F024CF8091370581111DC0223038F0C8
:1047D000243008F44BC0243011F41092630180910E
:1047E000D712811105C081E08093D7120E9482D533
:1047F0008091A0129091A1120E945CD581E08093DB
:10480000B3078093370583E071D981E08093BE12AE
:10481000E0919812F091991209951092B307809146
:104820003705811127C010929007809198129091BE
:104830009912815B984309F0F1CE0E941AD4DC01F1
:10484000CB018C199D09AE09BF098090DF049090BF
:10485000E004B12CA12C88169906AA06BB0608F024
:10486000D5CE9093E0048093DF04D0CE81E0809396
:104870006301B5CF8EE992E10E9441D791E08111A9
:1048800001C090E090933705882369F280919812D7
:1048900090919912815B9843B9F40E941AD4DC017B
:1048A000CB018C199D09AE09BF09C090DF04D090DF
:1048B000E004F12CE12CC816D906EA06FB0620F428
:1048C0009093E0048093DF0460960FB6F894DEBF07
:1048D0000FBECDBFDF91CF911F91FF90EF90DF9082
:1048E000CF90BF90AF909F908F907F906F905F9090
:1048F0004F90089548E9C40E4AE3D41EE11CF11C10
:10490000C092E104D092E204E092E304F092E40465
:10491000809137058111D8CF809163018130A1F654
:1049200010926301D1CF009709F46DCF43CFCF939D
:104930008091B604811154C01092D5121092D612F3
:104940001092D7121092A3121092A2121092A512D6
:104950001092A4121092A71281E08093A61282E214
:104960008093A8121092AD121092AC12E1ECF2E119
:104970002FEC32E18FEF81932E173F07E1F7C1E073
:10498000C093BE122CE638EB3093B4122093B312CE
:10499000C093B5121092B6121092B71290E4909391
:1049A000B8121092B9122BE638EB3093D012209344
:1049B000CF1221E131E03093A1122093A0129EE1A9
:1049C0009093C51291E19093C6129CE19093C3120B
:1049D0008093C2128093C1120E9482D5C093B60404
:1049E00081E08093B50481E090E19093CD118093B4
:1049F000CC111092CF111092CE1153985B9A52980D
:104A00005A9A3898409A51DC1092EB040E94A7C938
:104A1000CF9108959CE0899F802D112491E0980FFB
:104A20009093AF042CE0280F2093BD0730E02E5F59
:104A30003F4F4091D2124217130619F014F080E054
:104A400008952091D4129217D0F7662341F08E5F1B
:104A50000E94AAD68091BD078E5F0E94AAD680913F
:104A6000BD079091D212891750F32091D4129091E2
:104A7000AF04291720F31092D5128093D61281E04B
:104A80000895ACE0B0E0E7E4F5E20C9448F5FC01F1
:104A900060817181828193816F3F710581059105EC
:104AA00009F070F48AE992E1ACD8E091A212F09199
:104AB000A3123196849190E02C96E6E00C9464F574
:104AC0001091D5120091D6122091B50421110FC07A
:104AD00044E95FE0602F812F0E9422D890E080E0BF
:104AE000180F1093D5120093D6129927E5CFE090B6
:104AF000A212F090A3122EE932E13A832983212FEA
:104B000030E03C832B83202F30E03E832D831886BA
:104B10001F822FEF3FEF3A8729871C861B862EEADC
:104B20003DE1AE014F5F5F4FBF01C7010E94C3C8A7
:104B3000B7018EE992E10E9471D78F819885D0CF1D
:104B4000A8E0B0E0E6EAF5E20C943EF56C015A010B
:104B50004901FB0190818CE0989F800D1124982FD2
:104B6000F6012081822F880F820F880F8093D51243
:104B70009093D6124115510509F4A0C0DA82C9827A
:104B80007C836B83011122C0AE014B5F5F4FB40188
:104B9000C5010E94FAA75C018D819E81AF81B88515
:104BA000892B8A2B8B2B09F489C0CE01059669DFEE
:104BB000F60180818F5F8083853130F3CE010196CD
:104BC0000E941517E1CF10E075010DC07A0110E0C9
:104BD0000AC0E114F104B9F38FEFE81AF80A10E003
:104BE000E114F10489F3AE014B5F5F4FB401C501DD
:104BF0000E94FAA75C014D805E806F80788441142A
:104C0000510461047104E9F0F0E24F1651046104AB
:104C10007104A9F0D301C2018D97A109B1090297CE
:104C2000A105B10570F04BE2441651046104710412
:104C300041F05AE04516510461047104E9F511236D
:104C400041F2F6018081482F410F5527551F46310B
:104C5000510534F0853020F0CE0101960E941517E1
:104C600081E0411451046104710409F480E0180FDB
:104C7000F6018081810F8083112369F01150AE010C
:104C80004B5F5F4FB401C7010E94FAA77C01CE01C0
:104C90000596F7DEF1CF411451046104710471F0FF
:104CA000FAE04F1651046104710409F08CCFCE0173
:104CB00001960E94151788CF1F5F92CF2896E0E1DA
:104CC0000C945AF5A3E0B0E0E8E6F6E20C943CF56B
:104CD0004C013B015A011901280181E080933805FC
:104CE0004091B4075091B5076091B6077091B7072E
:104CF000411551056105710571F0141615060CF08A
:104D000080E0809334051092B4071092B50710929A
:104D1000B6071092B70710913405809190078B83E6
:104D200010929007811105C080916301882309F4D6
:104D30006CC0C2010E94DEA7082F80E0C114D1041C
:104D400019F0C6010E94DEA71A821982E114F1044B
:104D5000B1F4402F50E0282F30E0CA01820F931F9A
:104D600046976CF485E190E0841B950B821B930BB6
:104D700097FD0196959587958A8381E0898301E067
:104D800026E633E7A201BE016F5F7F4FCE01029698
:104D9000D7DEE114F10489F08A81882321F01A8298
:104DA00089818F5F898300E029E633E7A701BE018F
:104DB0006F5F7F4FCE010296C3DEC114D10451F064
:104DC00000E026E633E7A601BE016F5F7F4FCE010C
:104DD0000296B6DE41E04127B30181E00E940DD783
:104DE000C4010E94DEA7412FB40194E1981B892FD2
:104DF0000E940DD7FB81FF2341F0111101C0510129
:104E0000A114B10431F0F50109952396E2E10C9467
:104E100058F575D9FACF6FEF7FEF0C94641EFBCF76
:104E2000ACE0B0E0E6E1F7E20C9446F5F090D51284
:104E3000E090D6122091B504211112C044E55FE044
:104E40006E2D8F2D0E9422D890E080E0F80EF09217
:104E5000D512E092D61299272C96E8E00C9462F5D0
:104E6000C090A212D090A3122EE932E13A83298396
:104E70002F2D30E03C832B832E2D30E03E832D837D
:104E800018861F827A8769871C861B860EEA1DE1B9
:104E90009E012F5F3F4F49E653E7BC01C6010E94C8
:104EA0005AC9B6018EE992E10E9471D78F81988527
:104EB000CDCFA8E0B0E0EFE5F7E20C9440F57C013F
:104EC000162F5A014901862F660F990B9C01225417
:104ED0003E4F690186E0682E712C10160CF03DC023
:104EE000AE014B5F5F4F66E673E7C7010E94FAA70A
:104EF0007C018D819E81AF81B8850097A105B105A8
:104F000061F18B379105A105B10509F463C08E37B6
:104F10009105A105B10509F45DC08A329105A1058D
:104F2000B10501F517FF12C085EF9FE01E3F11F09C
:104F300081EF9FE036E00302B00111240E94641E5D
:104F400066E070E00E940EF5061B7CC08FEF9FE0CC
:104F500066DF015009F040C000E0802F2896EEE0A7
:104F60000C945CF584329105A105B105C9F4811456
:104F7000910461F0E6E00E02B0011124C4010E9428
:104F8000641EB3010E940EF5061BA7CFA114B10445
:104F9000E1F0F6E00F02B0011124C50141DFF1CFCD
:104FA00080349105A105B10581F40150F60180819D
:104FB000082E000C990BAA0BBB0B89839A83AB8339
:104FC000BC83CE0101965DDD88CFCE01059659DD0B
:104FD000015083CF17FDA8CF81E04D815E816F81A5
:104FE00078854B3751056105710509F480E0810F23
:104FF0008A30C4F001506AE00E94EDF4D92E082EE8
:10500000000C990BC096092E000CAA0BBB0B8983D0
:105010009A83AB83BC83CE01019633DD002309F470
:105020009BCF8D2D082E000C990BC096092E000CDD
:10503000AA0BBB0B89839A83AB83BC83CE010196F9
:1050400020DD0150002309F487CF86E00802B0017B
:105050001124C7010E94641E66E070E00E940EF5F4
:10506000061B7BCFB0E0A0E0E8E3F8E20C9442F549
:105070005B01C42F690141FB662760F9CBDC882303
:1050800009F461C010E000E0A114B10439F0C501D9
:105090000E94DEA766E0869F80011124F12CE12C9E
:1050A000C114D10429F0C6010E94ECA7E82EF12C0E
:1050B000C0FF1FC080E890E0801B910B4AEFB70152
:1050C00046039001479F300D1124820F931F6CE01F
:1050D00070E00E940EF54B01C0E8D0E071E0871A45
:1050E000910897FC08C086EB9FE095DEC81BD90BA2
:1050F000F5CFC0E8D0E001151105B1F0CE0166E0B2
:1051000070E00E94FAF42091C1073091C2074091EB
:10511000BF075091C007062F6091BE07C501C9DEC9
:1051200096E0899FE0011124E114F10429F0BE0109
:10513000C60176DEC81BD90BC730D10520F084EB41
:105140009FE069DEF7CFCDB7DEB7ECE00C945EF5FB
:1051500080916301882349F0609132057091330595
:1051600030E020E041E081E07DCF08956FEF7FEFF8
:1051700057CEA4E0B0E0EFEBF8E20C9442F54C011E
:105180006B010E94DEA7A82EC6010E94ECA7B12CDD
:1051900023E130E07901E81AF10815E2EA14FB0492
:1051A0000CF41FE1812F90E09C012E5F3F4F409156
:1051B000D2124217130609F094F509972091D412E0
:1051C0002817190664F12091C1073091C207409158
:1051D000BF075091C0076091BE071092D51210937F
:1051E000D61205E1C40165DE01E0C114D10499F0D5
:1051F0008CEB9FE014DEEA14FB049CF4145F8091B6
:10520000D212181740F02091D412412F4950550B5B
:105210002417150644F42496ECE00C945EF500E0A7
:10522000E4CF0023C1F380E290E0A0E0B0E0898306
:105230009A83AB83BC838E2D880FE80EEE0CE09230
:10524000D5121093D612CE0101961BDCC6018EDF5B
:10525000E2CF0F931F93CF93DF93FC01EB0180917B
:10526000B4079091B507A091B607B091B707B7FD05
:1052700074C040919A0750919B0760919C07709170
:105280009D07481759076A077B0714F4DB01CA0119
:105290008093B4079093B507A093B607B093B70770
:1052A000209163012223B9F040919E0750919F07FE
:1052B0006091A0077091A1078C019D01040F151F3B
:1052C000261F371FC901B8010995BC018091A407A9
:1052D0009091A5074EDF80919007811108C08091C1
:1052E00097078823A9F180916301882389F1809130
:1052F000A2079091A3070097B1F04091B407509195
:10530000B5076091B6077091B70700919E0710919D
:105310009F072091A0073091A107400F511F621FE6
:10532000731FFE010995E0919807F0919907309756
:1053300041F080919707811103C0809190078111FE
:105340000995809190071092900781110E947F200B
:10535000DF91CF911F910F91089580E090E0DC01E3
:1053600097CF65EB76E182E299E173CF63EC76E16A
:1053700087E49AE16ECF6DED76E188E39AE169CF3B
:1053800067EF76E18CE599E164CF6BEF76E187E535
:105390009AE15FCFACE0B0E0E0EDF9E20C9442F5C9
:1053A000982F862F5A016901E02E692F33DB88235D
:1053B00009F487C0C601002381F10E94DEA7F82E00
:1053C0008090A2129090A3128091B504811143C0E5
:1053D0002FEF3FEF922E03E10F192091C10730917B
:1053E000C2074091BF075091C0076091BE07C50139
:1053F00060DDFF2009F465C0B6E08B9F80011124B9
:105400008AEB9FE00CDD0730110508F442C088EB01
:105410009FE001DD081B190BF6CF0E94ECA7F82EC8
:105420008090A2129090A3128091B504882381F2FB
:10543000FE0133968AE0DF011D928A95E9F78EE935
:1054400092E19A83898307E81DE19E012F5F3F4F18
:1054500049E653E712C0FE0133968AE0DF011D9250
:105460008A95E9F78EE992E19A83898307E81DE13D
:105470009E012F5F3F4F46E653E7B601C4010E94ED
:105480005AC9B4018EE992E10E9471D72F81388503
:10549000A1CF4091BD07292D30E056E0F59EC00117
:1054A00011242E5F3F4F281739070CF49C0180E828
:1054B000821B8093D5124093D612C601EE2029F0AC
:1054C000AADC2C96ECE00C945EF550DEFACFA6E058
:1054D000B0E0EDE6FAE20C943CF50E9444D1209154
:1054E000AF072D83C22E2B5F29838C2D81958C8352
:1054F000DD24D39497E3292E91E1392E24EF422E17
:1055000055245394612C712C9D81911114C080916C
:10551000B207882309F48CC080916301882359F075
:1055200081E09091B207911180E024E042E451E1E2
:105530006C810E947DD088EFE82E87E0F82EA1E0F4
:10554000AE83BD81B150BA83ED81EC19EB83FD814F
:105550002E81F2132AC08A818093BE071092C2075F
:105560001092C1071092C0071092BF078091B20736
:105570008F1709F46FC0809163018823B1F011E0A7
:105580008091B207FE818F1310E0D70154966D9180
:105590007D918D919C9157970E945F1900E09C012D
:1055A00047E351E16B81812FF5DE1E81B4E0EB0E04
:1055B000F11CE1E0E10FEE83E43049F6FD81F430C7
:1055C00069F523E02093BE071092C2071092C1072D
:1055D0001092C0071092BF078091B207843009F47F
:1055E000A0C0809163018823C9F0B1E0BA838091A3
:1055F000B207843009F01A82609118087091190876
:1056000080911A0890911B080E945F1964E06C1940
:1056100000E09C0147E351E18A81BCDEED81EF5F50
:10562000ED83F981FE1370CF1E5F1093B0070EC09B
:105630008091900710929007882309F46DCF0E9403
:105640007F208091B107882309F466CF2696E2E196
:105650000C9458F58091900710929007882309F4D4
:105660008ACF0E9438D120E030E048EC52E4D701E4
:1056700054966D917D918D919C9157970E940EF15A
:105680002FE632E143E85AE30E9474F50E94B8F62F
:105690004B015C01B4EF8B1AB1E09B0AA108B10881
:1056A000D092B1070E944E20E3E0E0936301309274
:1056B000A5072092A407C70144969093A30780935F
:1056C000A20740929E0750929F076092A007709297
:1056D000A10788EE9FE3AFE0B0E080939A07909334
:1056E0009B07A0939C07B0939D078092B40790926C
:1056F000B507A092B607B092B707ABEBB9E2B0938B
:105700009912A0939812E9E9FAE1F0939907E093CE
:105710009807109297078091B107882309F42BCF3F
:1057200095CF8091900710929007882309F459CF64
:105730000E9438D120E030E048EC52E46091180833
:105740007091190880911A0890911B080E940EF11F
:105750002FE632E143E85AE30E9474F50E94B8F65E
:105760004B015C01A4EF8A1AA1E09A0AA108B108D2
:10577000D092B1070E944E20B3E0B0936301309203
:10578000A5072092A40788E198E09093A30780934F
:10579000A20740929E0750929F076092A0077092C6
:1057A000A10788EE9FE3AFE0B0E080939A07909363
:1057B0009B07A0939C07B0939D078092B40790929B
:1057C000B507A092B607B092B707ABEBB9E2B093BA
:1057D0009912A093981287E99AE190939907809380
:1057E0009807109297078091B107882309F4F9CEA2
:1057F0002DCFA6E0B0E0EFEFFBE20C943CF50E9469
:1058000044D12091AF072E83322E2B5F298383E072
:10581000282E9AE1E92E91E0F92E28EE422E23E07F
:10582000522E612C712C36EBC32E39E2D32E84E03C
:1058300083198A83822D83198B8382E083198C8359
:1058400091E093199D832E8121112EC08091B20782
:105850008823D1F080916301882361F0632D6195E5
:1058600081E09091B207911180E024E042E451E19F
:105870000E947DD09E819F5F9E8329812913E3CF63
:1058800085E08093B0070CC080919007109290073C
:10589000882301F30E947F208091B1078823D1F2F1
:1058A0002696E2E10C9458F58E81813069F590914D
:1058B000B2079130B1F0809163018823D9F281E081
:1058C000913009F080E090911A062BE231E19111BC
:1058D00002C027E231E101E04EE251E16D815ADD83
:1058E000C9CF8091900710929007882321F380916F
:1058F0001A062E81822780931A06209263018091D6
:10590000B1078823C1F2CCCF8E81823009F0BCC0B0
:105910008091B2078230C1F080916301882309F43D
:10592000A9CF11E08091B207823009F010E0809198
:105930002001909121010E94889E00E09C0140E29C
:1059400051E16C81812FCBCF80919007109290070D
:10595000882311F310E000E025EF30E050E040E054
:1059600060E271E080E291E10E940BD28091B10788
:10597000882391F295CF8091B2078330B9F080915E
:105980006301882309F476CF11E08091B207833058
:1059900009F010E080911E0190911F010E94889EE5
:1059A00000E09C0149E151E16B81CCCF80919007EF
:1059B00010929007882319F310E000E025EF30E003
:1059C00050E040E06EE171E089E191E10E940BD28C
:1059D0008091B107882399F263CF8091900710924C
:1059E0009007882309F45CC020E030E048EC52E4E2
:1059F00060911A0170911B0180911C0190911D0111
:105A00000E940EF12FE632E143E85AE30E9474F55A
:105A10000E94B8F64B015C0191E09093B1070E949F
:105A20004E202092630181E191E19093A50780933C
:105A3000A407F092A307E092A20710929E0710928B
:105A40009F071092A0071092A10740929A075092C8
:105A50009B0760929C0770929D078092B40790927A
:105A6000B507A092B607B092B707D0929912C0922C
:105A700098121092990710929807109297078091A8
:105A8000B107882369F00CCF8E81833009F473CF7E
:105A9000843009F0EFCE8091B207843009F49DCFB5
:105AA00080916301882309F4E5CE11E08091B2076B
:105AB000843009F010E060911A0170911B0180910F
:105AC0001C0190911D010E9418B000E09C0141E171
:105AD00051E16A8137CFA9E0B0E0E1E7FDE20C9443
